{
  "contractName": "GitProject",
  "abi": [
    {
      "constant": true,
      "inputs": [],
      "name": "repositoriesCount",
      "outputs": [
        {
          "name": "",
          "type": "uint256"
        }
      ],
      "payable": false,
      "stateMutability": "view",
      "type": "function"
    },
    {
      "constant": true,
      "inputs": [
        {
          "name": "",
          "type": "uint256"
        }
      ],
      "name": "users",
      "outputs": [
        {
          "name": "id",
          "type": "uint256"
        },
        {
          "name": "name",
          "type": "string"
        },
        {
          "name": "repoCount",
          "type": "uint256"
        }
      ],
      "payable": false,
      "stateMutability": "view",
      "type": "function"
    },
    {
      "constant": true,
      "inputs": [],
      "name": "usersCount",
      "outputs": [
        {
          "name": "",
          "type": "uint256"
        }
      ],
      "payable": false,
      "stateMutability": "view",
      "type": "function"
    },
    {
      "constant": true,
      "inputs": [
        {
          "name": "",
          "type": "uint256"
        }
      ],
      "name": "repositories",
      "outputs": [
        {
          "name": "id",
          "type": "uint256"
        },
        {
          "name": "name",
          "type": "string"
        }
      ],
      "payable": false,
      "stateMutability": "view",
      "type": "function"
    },
    {
      "constant": true,
      "inputs": [
        {
          "name": "",
          "type": "uint256"
        }
      ],
      "name": "reposToUsers",
      "outputs": [
        {
          "name": "",
          "type": "address"
        }
      ],
      "payable": false,
      "stateMutability": "view",
      "type": "function"
    },
    {
      "inputs": [],
      "payable": false,
      "stateMutability": "nonpayable",
      "type": "constructor"
    }
  ],
  "bytecode": "0x608060405234801561001057600080fd5b5061005e6040805190810160405280600781526020017f536f757261626800000000000000000000000000000000000000000000000000815250610063640100000000026401000000009004565b610184565b6003600081548092919060010191905055506060604051908101604052806003548152602001828152602001600081525060008060035481526020019081526020016000206000820151816000015560208201518160010190805190602001906100ce9291906100df565b506040820151816002015590505050565b828054600181600116156101000203166002900490600052602060002090601f016020900481019282601f1061012057805160ff191683800117855561014e565b8280016001018555821561014e579182015b8281111561014d578251825591602001919060010190610132565b5b50905061015b919061015f565b5090565b61018191905b8082111561017d576000816000905550600101610165565b5090565b90565b61047f806101936000396000f30060806040526004361061006d576000357c0100000000000000000000000000000000000000000000000000000000900463ffffffff1680633343f21a14610072578063365b98b21461009d5780636ba13a8214610151578063766527091461017c5780638b39f8a514610229575b600080fd5b34801561007e57600080fd5b50610087610296565b6040518082815260200191505060405180910390f35b3480156100a957600080fd5b506100c86004803603810190808035906020019092919050505061029c565b6040518084815260200180602001838152602001828103825284818151815260200191508051906020019080838360005b838110156101145780820151818401526020810190506100f9565b50505050905090810190601f1680156101415780820380516001836020036101000a031916815260200191505b5094505050505060405180910390f35b34801561015d57600080fd5b5061016661035e565b6040518082815260200191505060405180910390f35b34801561018857600080fd5b506101a760048036038101908080359060200190929190505050610364565b6040518083815260200180602001828103825283818151815260200191508051906020019080838360005b838110156101ed5780820151818401526020810190506101d2565b50505050905090810190601f16801561021a5780820380516001836020036101000a031916815260200191505b50935050505060405180910390f35b34801561023557600080fd5b5061025460048036038101908080359060200190929190505050610420565b604051808273ffffffffffffffffffffffffffffffffffffffff1673ffffffffffffffffffffffffffffffffffffffff16815260200191505060405180910390f35b60045481565b6000602052806000526040600020600091509050806000015490806001018054600181600116156101000203166002900480601f01602080910402602001604051908101604052809291908181526020018280546001816001161561010002031660029004801561034e5780601f106103235761010080835404028352916020019161034e565b820191906000526020600020905b81548152906001019060200180831161033157829003601f168201915b5050505050908060020154905083565b60035481565b6001602052806000526040600020600091509050806000015490806001018054600181600116156101000203166002900480601f0160208091040260200160405190810160405280929190818152602001828054600181600116156101000203166002900480156104165780601f106103eb57610100808354040283529160200191610416565b820191906000526020600020905b8154815290600101906020018083116103f957829003601f168201915b5050505050905082565b60026020528060005260406000206000915054906101000a900473ffffffffffffffffffffffffffffffffffffffff16815600a165627a7a723058208c8b9897260fbfbeff4f3585e5c0cbefabe486b48754314c6be6a20c431645460029",
  "source": "pragma solidity ^0.4.11;\n\ncontract GitProject {\n\n    struct User {\n        uint id;\n        string name;\n        uint repoCount;\n    }\n\n    struct Repository {\n        uint id;\n        string name;\n    }\n\n    mapping(uint => User) public users;\n    mapping(uint => Repository) public repositories;\n    mapping(uint => address) public reposToUsers;\n\n    uint public usersCount;\n    uint public repositoriesCount;\n    \n    function GitProject () public {\n        addUser(\"Sourabh\");\n    }\n\n    function addUser (string _name) private {\n        usersCount++;\n        users[usersCount] = User(usersCount, _name, 0);\n    }\n\n    function addRepository (string _name) private {\n        repositoriesCount++;\n        repositories[repositoriesCount] = Repository(repositoriesCount,_name);\n        reposToUsers[repositoriesCount] = msg.sender;\n    }\n}\n",
  "sourcePath": "/home/sahilrd07/workspace/gitproject_ethereum/contracts/GitProject.sol",
  "compiler": {
    "name": "solc",
    "version": "0.4.24+commit.e67f0147.Emscripten.clang"
  },
  "schemaVersion": "2.0.1",
  "updatedAt": "2018-12-09T09:23:12.911Z"
}